:106F140047726565647920536E616B652047616DC6
:106F2400650053636F72653A0047414D45204F56E3
:106F340045522100594F555220534F524345204941
:106F440053005072657373204B3120746F20726547
:106F54007374617274207468652067616D652100C3
:105ACD009000D17458F0A374B0F0E49000D0F09031
:105ADD0000CFF09000CE7402F09000067458F09054
:105AED00006A74B0F09000077458F090006B74B7B2
:105AFD00F0123FF990036974F8F0A3E4F090036499
:105B0D00E0FFA3E09000DBCFF0A3EFF0A37410F063
:105B1D00A374FFF0A3746FF0A37414F0900362E00C
:105B2D00FAA3E0FBE4FDFC7F04FE1261B29000D904
:105B3D00E4F0A374B7F0A3E4F0A3741FF07BB07A84
:105B4D00007D127C00E4FFFE1265DD900364E0FF32
:105B5D00A3E09000DBCFF0A3EFF0A37410F0A374DB
:105B6D00FFF0A3746FF0A37426F0900362E0FAA324
:105B7D00E0FB7DCB7C007F047E001261B29000D0F3
:105B8D00E0FFE4FCFDFE9000D91230D49000DD74EE
:105B9D0002F0A37410F07DCB7C007F327E00126288
:105BAD00979000DBE4F0A37406F0A374F8F0A3E47F
:105BBD00F07B06FA7DADFC7F55FE126BED9000DBA0
:105BCD00E4F0A37406F0A374F8F0A3E4F07B06FAF6
:095BDD007DB4FC7F55FE026BED66
:1072A000758921D2AFD2A9758CFE758A33D28C2212
:1068D300E4FBFAE58B75F01984900002E5F0F0E52E
:1068E3008B75F01A84A3E5F0F0900002E075F007D1
:1068F300A404900000F0900003E075F007A42413B3
:10690300900001F0E4FFFE9000CEE024FFFDE434AC
:10691300FFFCC3EF9DEC6480F8EE64809850317403
:10692300062FF58274003EF583E0FD900000E0B58C
:106933000517746A2FF58274003EF583E0FD90001D
:1069430001E0B505047A007B010FBF00010E80B79B
:10695300EB4A60030268D3900000E0FF7E00A3E0EF
:10696300FD7C009000DBE4F0A37406F0A374FFF059
:0B697300A374E0F07B067A00026BEDDD
:10676600E4FFFE126C63900364E0FFA3E09000DB9D
:10677600CFF0A3EFF0A37418F0A374FFF0A3746F27
:10678600F0A3742DF0900362E0FAA3E0FB7D467C53
:10679600007F1E7E001261B2900364E0FFA3E090CA
:1067A60000DBCFF0A3EFF0A37410F0A374FFF0A307
:1067B600746FF0A37438F0900362E0FAA3E0FB7DF7
:1067C6006E7C007F147E001261B29000D0E0FFE480
:1067D600FCFDFE9000D91230D49000DD7402F0A3C7
:1067E6007418F07D697C007F827E001262979003A8
:1067F60064E0FFA3E09000DBCFF0A3EFF0A3740CFE
:10680600F0A374FFF0A3746FF0A37446F0900362D4
:0F681600E0FAA3E0FB7D877C00E4FFFE0261B2A5
:10313E009000047401F09000D1E0FF7E0024FDFDAC
:10314E00EE34FFFCD3ED9400EC64809480500302C7
:10315E003418EF2403FFEE33FEC3EF94B0EE648019
:10316E0094804003023418A3E0FF7E0024FDFDEEA0
:10317E0034FFFCD3ED9412EC64809480500302343F
:10318E0018EF2403FFEE33FEC3EF94C9EE64809470
:10319E008040030234189000CFE060030234189090
:1031AE000004E0A3F06401701E90006BE0FF90003D
:1031BE006AE0C39FFFE49400FEEF64074E70089030
:1031CE000005E0900004F0900004E06402701E9090
:1031DE00006BE0FF90006AE0C39FFFE49400FEBE28
:1031EE00FF0BBFF908900005E0900004F09000047A
:1031FE00E06403701E900007E0FF900006E0C39F9E
:10320E00FFE49400FEEF64074E7008900005E09016
:10321E000004F0900004E06404701E900007E0FFCC
:10322E00900006E0C39FFFE49400FEBEFF0BBFF9C3
:10323E0008900005E0900004F0900004E024FE6089
:10324E000F1460111460172403701A9000D28008B6
:10325E009000D2800C9000D1E024F9F0800790000D
:10326E00D1E02407F09000CEE0FF2405F582E4348F
:10327E0000F583E09000D3F074692FF582E43400FA
:10328E00F583E09000D4F079019000CEE0FFE9C321
:10329E009F5048E9FF7E00E0C39FFDE49EFC74054D
:1032AE002DF58274003CF583E0FB74062DF58274D7
:1032BE00003CF583EBF09000CEE0C39FFFE49EFE52
:1032CE0074692FF58274003EF583E0FD746A2FF564
:1032DE008274003EF583EDF00980AE9000D1E0904F
:1032EE000006F09000D2E090006AF09000D1E02449
:1032FE00FDFFE434FFFEA3E024FDFDE434FFFC906B
:10330E0000DBE4F0A37406F0A374F8F0A3E4F07B02
:10331E0006FA126BED900000E02403FFE433FE90FA
:10332E0000D1E07C00B50718ECB50614900001E062
:10333E002403FFE433FE9000D2E06F7001EE602AAA
:10334E009000D3E024FDFFE434FFFEA3E024FDFD56
:10335E00E434FFFC9000DBE4F0A37406F0E4A3F089
:10336E00A3F07B06FA126BED80599000CEE004F0CC
:10337E009000D0E004F01268D39000D0E0FFE4FC9F
:10338E00FDFE9000D91230D49000DD7402F0A374CB
:10339E0010F07DCB7C007F327E001262979000D3BE
:1033AE00E0FF9000CEE0FE2405F582E43400F583C4
:1033BE00EFF09000D4E0FF74692EF582E43400F54E
:1033CE0083EFF07F049000CEE0FEEFC39E50317489
:1033DE00062FF582E43400F583E0FE9000D1E0B5CF
:1033EE00061B746A2FF582E43400F583E0FE90002C
:1033FE00D2E0B506089000CF7401F080030F80C5AF
:0D340E007F887E1312724A02314402676605
:10727C00759850758DFA858D8B758780D2ACC2ABA5
:03728C00D28E227D
:10728F001272A012727C125ACD1268D312313E8044
:01729F00FEF0
:03000B00020003ED
:07000300758CFE758A333293
:03002300026EBDAD
:0D6EBD00C0E0C083C082C0D075D000C00707
:106ECA00309804C298AF99EF24FE60121460171428
:106EDA00601C2403701E9000047401F08016900058
:106EEA00047402F0800E9000047403F0800690008F
:0F6EFA00047404F0900004E0F5993099FDC299FA
:0B6F0900D007D0D0D082D083D0E0327F
:0B72B000EF1FAC0670011E4C70F622B0
:10724A00D3EF9400EE940040147D6E7C00ED1D7027
:0D725A00011CED4C70F7EF1F70E61E80E385
:017267002204
:1000260000000000000000000000000000000000CA
:100036003F4000000000000000003000400030009B
:100046004000000009000BC03D000BC03D00090048
:1000560018C024407FE0224031800000180024C0F0
:100066001B000D803240018003801C4027401C800D
:100076000740004010006000000000000000000083
:100086000000000000001F802040402000004020AB
:1000960020401F8000000000090006001F800600A7
:1000A60009000000040004003F8004000400000072
:1000B60000100060000000000000000004000400C2
:1000C60004000400040000000000004000000000DE
:1000D60000000000002001C00600380040000000BB
:1000E6001F802040204020401F800000000010405C
:1000F6003FC000400000000018C0214022402440BC
:100106001840000010802040244024401B8000003E
:1001160002000D0011003FC0014000003C80244059
:1001260024402440238000001F8024402440344083
:10013600038000003000200027C0380020000000A7
:100146001B802440244024401B8000001C0022C049
:10015600224022401F8000000000000008400000EE
:100166000000000000000000046000000000000025
:10017600000004000A001100208040400900090028
:10018600090009000900000000004040208011001D
:100196000A00040018002000234024001800000074
:1001A6001F802040274029401F400000004007C014
:1001B60039000F0001C0004020403FC024402440C9
:1001C6001B8000001F80204020402040308000001F
:1001D60020403FC0204020401F80000020403FC0FC
:1001E60024402E4030C0000020403FC024402E0056
:1001F600300000000F0010802040224033800200B3
:1002060020403FC0040004003FC020402040204062
:100216003FC02040204000000060202020203FC03A
:100226002000200020403FC024400B0030C020406A
:1002360020403FC020400040004000C03FC03C007E
:1002460003C03C003FC0000020403FC00C402300DC
:100256003FC020001F802040204020401F8000001B
:1002660020403FC024402400180000001F80214089
:10027600214020E01FA0000020403FC0244026006F
:1002860019C0004018C0244024402240318000009C
:10029600300020403FC020403000000020003F805A
:1002A600004000403F80200020003E0001C00700C3
:1002B60038002000380007C03C0007C038000000A6
:1002C600204039C0060039C02040000020003840D8
:1002D60007C0384020000000304021C0264038408A
:1002E60020C00000000000007FE040204020000009
:1002F600000070000C000380004000000000402059
:1003060040207FE0000000000000200040002000A8
:100316000000000000100010001000100010001077
:100326000000000040000000000000000000028005
:100336000540054003C0004020003FC00440044083
:1003460003800000000003800440044006400000D3
:1003560000000380044024403FC0004000000380AA
:100366000540054003400000000004401FC0244033
:1003760024402000000002E00550055006500420ED
:1003860020403FC00440040003C000400000044079
:1003960027C000400000000000100010041027E0F5
:1003A6000000000020403FC00140070004C0044098
:1003B600204020403FC000400040000007C004002D
:1003C60007C0040003C00000044007C00440040046
:1003D60003C0004000000380044004400380000086
:1003E600041007F00450044003800000000003805E
:1003F6000440045007F00010044007C00240040007
:1004060004000000000006400540054004C000004E
:10041600000004001F800440004000000400078024
:100426000040044007C000400400070004C00180EB
:1004360006000400060001C0070001C00600000017
:10044600044006C0010006C0044000000410071066
:1004560004E00180060004000000044005C00640D8
:10046600044000000000000004007BE04020000083
:10047600000000000000FFF0000000000000402027
:100486007BE00400000000004000800040002000E7
:1004960020004000000000000000000000000000F6
:1004A600000000000000000000001FCC000C00004F
:1004B6000000000000000800300060000800300066
:1004C60060000000022003FC1E20022003FC1E2008
:1004D6000220000000000E1811043FFF10840C7863
:1004E600000000000F0010840F3800C00778188441
:1004F6000078000000780F8410C411240E9800E4E0
:100506000084000808006800700000000000000079
:100516000000000000000000000007E0181820049A
:1005260040020000000040022004181807E0000006
:10053600000000000240024001800FF001800240EE
:10054600024000000080008000800FF800800080DC
:10055600008000000001000D000E000000000000F9
:100566000000000000000080008000800080008005
:10057600008000800000000C000C0000000000005D
:100586000000000000000006001800600180060060
:1005960018002000000007F00808100410040808DE
:1005A60007F000000000080408041FFC0004000413
:1005B6000000000000000E0C1014102410441184DA
:1005C6000E0C000000000C1810041104110412880F
:1005D6000C700000000000E00320042408241FFC27
:1005E6000024000000001F981084110411041088D4
:1005F60010700000000007F0088811041104188824
:100606000070000000001C00100010FC13001C000D
:100616001000000000000E381144108410841144AC
:100626000E38000000000700088C104410440888AB
:1006360007F00000000000000000030C030C00009F
:10064600000000000000000000010106000000009C
:10065600000000000000008001400220041008088D
:1006660010040000022002200220022002200220A4
:1006760002200000000010040808041002200140B7
:100686000080000000000E001200100C106C10809C
:100696000F00000003E00C1813E4142417C4082804
:1006A60007D000000004003C03C41C40074000E4DF
:1006B600001C000410041FFC1104110411040E8810
:1006C6000070000003E00C18100410041004100859
:1006D6001C10000010041FFC10041004100408086D
:1006E60007F0000010041FFC1104110417C41004C5
:1006F6000818000010041FFC1104110017C0100098
:100706000800000003E00C181004100410441C78C4
:100716000040000010041FFC10840080008010843C
:100726001FFC10040000100410041FFC1004100429
:100736000000000000030001100110011FFE100060
:100746001000000010041FFC110403801464181C20
:100756001004000010041FFC100400040004000430
:10076600000C000010041FFC1F0000FC1F001FFCF3
:100776001004000010041FFC0C04030000E0101815
:100786001FFC100007F008081004100410040808E5
:1007960007F0000010041FFC1084108010801080E9
:1007A6000F00000007F0081810241024101C080A77
:1007B60007F2000010041FFC1104110011C01130D3
:1007C6000E0C000400000E1C11041084108410444A
:1007D6001C3800001800100010041FFC1004100044
:1007E6001800000010001FF8100400040004100494
:1007F6001FF8100010001E0011E0001C007013808E
:100806001C0010001FC0103C00E01F0000E0103C60
:100816001FC000001004180C163401C001C01634A5
:10082600180C100410001C00130400FC13041C0018
:10083600100000000804101C1064108413041C042B
:10084600101800000000000000007FFE4002400279
:1008560040020000000030000C0003800060001C15
:100866000003000000004002400240027FFE00003C
:100876000000000000000000200040004000400092
:10088600200000000001000100010001000100013C
:1008960000010001000040004000200000000000B0
:1008A60000000000000000980124014401440144B6
:1008B60000FC000410001FFC0088010401040088ED
:1008C60000700000000000700088010401040104AB
:1008D600008800000000007000880104010411086F
:1008E6001FFC0004000000F80144014401440144D7
:1008F60000C800000000010401040FFC11041104EB
:1009060011001800000000D601290129012901C99A
:100916000106000010041FFC008401000100010410
:1009260000FC000400000104190419FC0004000482
:10093600000000000000000300010101190119FE7A
:100946000000000010041FFC0024004001B4010C4C
:10095600010400000000100410041FFC0004000441
:1009660000000000010401FC0104010001FC010477
:10097600010000FC010401FC0084010001000104E7
:1009860000FC0004000000F8010401040104010455
:1009960000F80000010101FF008501040104008840
:1009A60000700000000000700088010401040105C9
:1009B60001FF00010104010401FC0084010401009F
:1009C60001800000000000CC012401240124012440
:1009D6000198000000000100010007F8010401046D
:1009E60000000000010001F80004000400040108F2
:1009F60001FC0004010001800170000C0010016080
:100A06000180010001F0010C003001C00030010C32
:100A160001F0010000000104018C00740170018CDA
:100A260001040000010101810171000E001801603E
:100A36000180010000000184010C0134014401849D
:100A4600010C0000000000000000000001003EFC58
:100A5600400240020000000000000000FFFF00000E
:100A6600000000000000400240023EFC01000000C1
:100A76000000000000006000800080004000400090
:100A86002000200000000000000000000000000020
:100A96000000000000000000000000000000000050
:100AA6000000000000000000000000000000000040
:100AB600000000000000000F80380FFE380F80385D
:100AC6000000000000000000000000000000000020
:100AD60000000100000600000C0000380000310094
:100AE600000600000C000038000030000000000086
:100AF6000000000061800067F807F980006180004F
:100B060061800061800061800067F807F9800061FC
:100B16008000000000000000000001C0E003E0F0DB
:100B26000630080418081FFFFE040E080787F003A6
:100B360081E000000000000001F000060C00040443
:100B460008060C7001F9C0000E00003BE000EC182E
:100B5600070808040C180003E00000000001E0008C
:100B660007F003F818041C0804170807E1D003C0AF
:100B7600E00023B0003C0800200800001000000040
:100B86000000000100003100003200001C000000DF
:100B9600000000000000000000000000000000004F
:100BA600000000000000000000000000000000003F
:100BB600000000007F0001FFC00780F00C00181045
:100BC60000042000020000000000002000021000C7
:100BD600040C00180780F001FFC0007F0000000031
:100BE60000000000000000000000000000000000FF
:100BF6004200006600006600003C0000180003FF8B
:100C0600C0001800003C00006600006600004200BC
:100C160000000000080000080000080000080000AE
:100C2600080001FFC00008000008000008000008D6
:100C36000000080000000000000100003100003242
:100C460000001C0000000000000000000000000082
:100C5600000000000000000000000000080000087E
:100C66000000080000080000080000080000080056
:100C76000008000008000008000000000000000056
:100C860000000000380000380000380000000000B6
:100C9600000000000000000000000000000000004E
:100CA60000000000000600001C000070000180002B
:100CB6000E0000380000C0000700001C00003000D5
:100CC60000000000000000007F8001FFE00380704C
:100CD60006001804000804000806001803807001C6
:100CE600FFE0007F8000000000000000000001001F
:100CF6000801000801000803FFF807FFF8000008D4
:100D060000000800000800000000000000000001CC
:100D1600C03802C0580400980401180402180404DC
:100D260018061C1803F81801E0F80000000000007F
:100D360000000001C0E003C0F00400080408080435
:100D4600080806180803F41801E7F00001E000009F
:100D560000000000000000000300000D000011006C
:100D660000610000810803010807FFF80FFFF80083
:100D760001080001080000000000000000E007FC78
:100D8600D0060808061008061008061008061838C7
:100D9600060FF00607C0000000000000000000007B
:100DA6003F8001FFE0038430020818041008041095
:100DB60008041008071810030FF00007C000000011
:100DC60000000000000003C0000700000600000647
:100DD60000F80607F806180006E0000700000600FF
:100DE6000000000000000001E1E003F7F006341007
:100DF600041808041808040C08040C08061618033E
:100E0600F3F001C1E000000000000000F80003FC60
:100E16003003063804020804020804020804041019
:100E26000308F001FFC0007F000000000000000082
:100E36000000000000000000000000007038007094
:100E460038007038000000000000000000000000BC
:100E5600000000000000000000000000000000008C
:100E6600301A00301C0000000000000000000000E6
:100E76000000000000000000000000080000140050
:100E86000022000041000080800100400200200492
:100E960000100800080000000000000021000021EA
:100EA6000000210000210000210000210000210097
:100EB60000210000210000210000000000000000C9
:100EC6000000080008040010020020010040008015
:100ED600800041000022000014000008000000000D
:100EE60000000003C00004C0000400000800380829
:100EF6000F380808380810000C300007E00003C05F
:100F060000000000000000003F8000FFE00380704A
:100F1600020F1006708804C088048308047F8802C4
:100F2600C09003012000FE400000080000180001E8
:100F3600F8003E0801C20007020007E20000FE00BA
:100F4600001FC80001F80000380000080400080768
:100F5600FFF807FFF804080804080804080804084E
:100F66000806180803F41801E7F00001E000000085
:100F7600000000003F8001FFE003807002001804BB
:100F8600000804000804000804001006002007807A
:100F9600C000000004000807FFF807FFF804000877
:100FA6000400080400080400180200100380700101
:100FB600FFE0007F8000000004000807FFF807FF3D
:100FC600F8040808040808040808040808043E0889
:100FD600040008060018010060000000040008076D
:100FE600FFF807FFF80408080408000408000408CE
:100FF60000043E000600000600000180000000001C
:10100600000000003F8001FFE00380700600180426
:1010160000080402080402080203F00783F0000235
:101026000000020004000807FFF807FFF80408089C
:10103600000800000800000800000800040808076F
:10104600FFF807FFF8040008000000000000040095
:101056000804000804000807FFF807FFF804000862
:101066000400080400080000000000000000000062
:10107600000600000700000104000104000104004E
:101086000307FFFE07FFFC04000004000004000045
:1010960004000807FFF807FFF8040C080018000012
:1010A6003E0004C7800503C80600F80400380400A3
:1010B6001800000804000807FFF807FFF8040008F6
:1010C60000000800000800000800000800000800F2
:1010D600001800006000000004000807FFF8078001
:1010E6000807FC00007FC00003F80007C000780076
:1010F60007800807FFF807FFF80400080400080740
:10110600FFF807000803C00000E000003800001EDA
:10111600000007000001C00400F007FFF80400000B
:10112600000000007F8001FFE003807006001804C5
:10113600000804000806001803003001FFE0007FE5
:101146008000000004000807FFF807FFF804040801
:10115600040400040400040400040400060C000354
:10116600F80001F000000000000000007F8001FF91
:10117600E00380700600880400880400C806003C6E
:1011860003003E01FFE6007F84000000040008071C
:10119600FFF807FFF8040808040800040C00040F11
:1011A60000040BC00610F003F03801E00800000848
:1011B60000000001E0F803F03006301004180804BF
:1011C6001808040C08040C080206180207F0078128
:1011D600E00000000180000600000400000400009A
:1011E60004000807FFF807FFF804000804000004DD
:1011F600000006000001800004000007FFE007FF72
:10120600F0040018000008000008000008000008AC
:1012160000000804001007FFE004000004000006B8
:10122600000007E00007FE00041FE00001F80000D0
:10123600380001E0043E0007C0000600000400007C
:1012460004000007E00007FFC0041FF80007C007FE
:10125600F80007FF80043FF80007C004F800070005
:101266000004000000000004000806001807C0780B
:1012760005F1C8003E00001F800463E80780F806F9
:1012860000180400080000000400000600000780A3
:101296000007E008047C08001FF80007F80018089B
:1012A60004E008070000060000040000000000013A
:1012B60000080600380400F80403E8040F08047C5C
:1012C6000805F00807C008070018040060000000C1
:1012D6000000000000000000000000000000003FC9
:1012E600FFFE200002200002200002200002200053
:1012F60002000000000000000000080000070000D7
:1013060000C0000038000006000001C000003000E8
:10131600000E000001000000000000000000200098
:10132600022000022000022000022000023FFFFEF1
:1013360000000000000000000000000000000000A7
:10134600000000000008000010000030000020002F
:10135600003000001000000800000000000000003F
:101366000000010000010000010000010000010072
:101376000001000001000001000001000001000062
:101386000100000100000000000000000020000035
:101396002000001000001000000000000000000007
:1013A60000000000000000000000000000F000192E
:1013B600F8001B1800220800260800240800241044
:1013C600003FF8001FF800000800001800000004A5
:1013D600000007FFF80FFFF00018180010080020A3
:1013E60008002008003018001FF0000FC0000000A1
:1013F6000000000007C0001FF000183000200800A1
:101406002008002008003C08001C100000600000B6
:10141600000000000000000007C0001FF0003818A0
:1014260000200800200800200804101007FFF80F0D
:10143600FFF00000100000000000000000000007A0
:10144600C0001FF0001230002218002208002208F7
:10145600003208001E10000E2000000000000000F0
:10146600200000200800200801FFF803FFF80620EE
:1014760008042008042008072000030000000000DC
:1014860000000000000E000E6E001FF30031B100D8
:1014960020B10020B1003191001F13002E1E002044
:1014A6000E00300000000004000807FFF80FFFF8E8
:1014B600001008002000002000002008003FF8006F
:1014C6001FF80000080000000000000000000020D7
:1014D60008002008002008063FF8063FF80000082C
:1014E60000000800000800000000000000000000E6
:1014F600000000000300000300200100200100207E
:1015060003063FFE063FFC0000000000000000004E
:1015160000000004000807FFF80FFFF8000188002C
:101526000300002FC00038F8002038002008000013
:101536000800000000000000000004000804000885
:1015460004000807FFF80FFFF80000080000080075
:101556000008000000000000002008003FF8003FDF
:10156600F8001008002000003FF8003FF8001008BF
:10157600002000003FF8003FF800000800000000CF
:101586002008003FF8003FF8001008001000002077
:1015960000002008003FF8001FF8000008000000C7
:1015A6000000000007C0000FF000183000300800EF
:1015B6002008002008003008001830000FF000074F
:1015C600C0000000000000002001003FFF003FFFB8
:1015D6000010110020090020080020080030380003
:1015E6001FF0000FC00000000000000007C0001F31
:1015F600F00038180020080020080020090010110B
:10160600001FFF003FFF000001000000002008004F
:101616002008002008003FF8003FF80008080010E6
:101626000800200800200000300000300000000004
:10163600000000000000000C78001E1800330800AF
:1016460023080021080021880021980030F0003886
:1016560060000000000000002000002000002000C4
:1016660000FFF003FFF80020080020080020080013
:101676000030000000000000000000002000003FD5
:10168600F0007FF800001800000800000800201095
:10169600003FF8007FF0000010000000000000008E
:1016A6002000003000003C00003F800023F00000D6
:1016B60078000070002380003C000030000020000D
:1016C600002000003C00003FE00023F80000E0009E
:1016D6002700003E00003FE00021F80001E0003E48
:1016E6000000200000000000200800200800383814
:1016F600003E680027800003C8002CF80038380038
:101706002018002008000000000000002000003023
:1017160003003C01003F830023EC0000700023809F
:10172600003C000020000020000000000000000037
:1017360000000038080020380020F80023E8002FB9
:1017460088003E08003808002018000070000000DD
:101756000000000000000000000000000000000083
:1017660008000014001FF7FC3000062000020000ED
:101776000000000000000000000000000000000063
:10178600000000000000FFFFFF0000000000000056
:101796000000000000000000000000000000200023
:1017A600023000061FF7FC001400000800000000CD
:1017B600000000000000000000000000000000180B
:1017C6000000600000400000400000200000100003
:1017D600000800000400000400000C0000100000D7
:1017E600C6D50000000000E0380000783C00003C50
:1017F6007800003C70C0001CE1E01FFFFFF0001CF9
:10180600E3000E1CE7C0079CE78003DCEF0003DC67
:10181600EE0001DCFC60009CF9F07FFFFFF80000A1
:10182600000001C00E0001FFFF0001C00E0001C054
:101836000E0001C00E0001FFFE0001C00E0001C037
:101846000E0001C00E0001FFFE0001C00E0001C027
:101856000E0000000000D6D00000000000070000C7
:1018660000078000000700000007000000070000D6
:10187600000701801FFFFFE01FFFFFE01E0701C0FA
:101886001E0701C01E0701C01E0701C01E0701C0BA
:101896001E0701C01FFFFFC01FFFFFC01E0701C0BC
:1018A6001C07018000070000000700000007000079
:1018B6000007000000070000000700000007000006
:1018C600000700000007000000000000BFC600007F
:1018D600000000000780003C07C001FC07803FE0D5
:1018E600078039C1C78001C0E78001C0F78001C009
:1018F600778001DE77807FFE078001C0078003C303
:10190600C78003E1E78003F8F78007FCE7F00FDE06
:1019160067F80FDC07F81FC0FF801DDFE78039CCB2
:10192600078071C0078061C0078001C0078001C0C1
:10193600078001E0078001E0078001C00700000082
:101946000000BCBC000000000380300003C03C0067
:1019560003C03C0003C0380003C0380003C0386031
:1019660003F838F07FFFFFF003C0380003C03800EB
:1019760003C0380003DC39C003FFFFE007E383C080
:101986003FC183C07FC1C3803BC1C78003C0EF0096
:1019960003C0EF0003C07E0003C07C0003C07C00D0
:1019A60003C0FE003BC3EF803F8787F80FBF03F8F5
:1019B600077800E000000000C4EA0000000000C054
:1019C600000001F0000001E0000003C000C003C0F9
:1019D60001E007FFFFF00703C0000E03C0001E036F
:1019E600C0003C03C3007303C78063FFFFC00383CB
:1019F600C0000383C0000383C0000383C0000383C9
:101A0600C0600383C0F07FFFFFF80003C00000033F
:101A1600C0000003C0000003C0000003C0000003B4
:101A2600C0000003C0000003C00000000000D4C2D4
:101A3600000000000000000000E0070000FFFF803B
:101A460000F0078000F0070000F0070000F0070034
:101A560000F0070000FFFF0000FFFF0000F0070096
:101A660000F0070000F0070000F0070000E00700A4
:101A760000FFFF0000E0070000E0070000E00700AD
:101A860001E0070001C0070001C00700038007004E
:101A96000780F7000F007F001E001F0038001C00A3
:101AA60000000000C8D50000000000000000030090
:101AB600030003FFFF8003FFFF800380070003800E
:101AC60007000380070003800700038007000380E8
:101AD6000700038007000380070003FFFF00038061
:101AE60007000380070003800700038007000380C8
:101AF60007000380070003800700038007000380B8
:101B0600070003FFFF000380070003800700038030
:101B160007000300000000000000D0C7000000001E
:101B2600000000000380070003FFFF80038007001A
:101B3600038007000380070003FFFF000380070000
:101B46000380070003FFFF0003FFFF000387070072
:101B56000387C00003C7810003C7838007FFFFC058
:101B6600070780000F0780001E0786001C078F00EE
:101B76003BFFFF807007800000078000000780E0C1
:101B8600000781F07FFFFFF8000000000000000062
:101B9600C6DA0000000006000000079E0000079E4F
:101BA6007FF0079E7FF0079FF8F03FFFF8F01F9E3B
:101BB60078F0079E78F0079E78F007FE7FF0079E84
:101BC60078F0079E78F0079E70F007FE70F0079E8B
:101BD60070F0079E7FF0079FFFF03FFFF0F0119037
:101BE60070F003DCF0F003DEE0F0078FE0F00F0F9B
:101BF600E0F00E07C0F01C038FF0380F03E0201C46
:061C060001C00000000017
:0A72BB00420369FFFF42036B00006D
:10720C00E4FDFCC3ED9FEC9E5014E4FBFA0BBB00B9
:0E721C00010AEBF44A70F60DBD00010C80E58E
:01722A002241
:0871BA007E001271C2E4FFFE29
:0471C200AD07AC0663
:1071C600ECFFAE05D2A5C2A7D2B2C2A68F90C2A5C9
:0C71D600D2A5AF068F90C2A5D2A5D2A70B
:0171E200228A
:0D718C007E001271C29000F4E0FEA3E0FF4F
:04719900AD07AC068C
:10719D00ECFFAE05D2A5C2A7D2B2D2A68F90C2A5E2
:0C71AD00D2A5AF068F90C2A5D2A5D2A734
:0171B90022B3
:0871E3009003B4E0FEA3E0FFFD
:0471EB00AD07AC063A
:1071EF00ECFFAE05D2A5C2A7D2B2D2A68F90C2A590
:0C71FF00D2A5AF068F90C2A5D2A5D2A7E2
:01720B002260
:067268007C107F037E0094
:0E726E00AB05AA041271C2AE02AF0302719901
:10722B007590FF7580FFC2A7D2A6C2B200AF90EFD8
:0E723B00FED2B2C2B200AD90EDFFD2B2D2A729
:017249002222
:106FB400900368EFF07021FD7C057F01FE12726E74
:106FC4007D30127268900364E4F0A374DCF09003E3
:106FD40062E4F0A374B0F0227D007C047F017E00A3
:106FE40012726E7D38127268900364E4F0A374B078
:0B6FF400F0900362E4F0A374DCF022D4
:103FF900E49000D3F0A3F0D2B37F64FE12724AC2F8
:10400900B37F647E0012724AD2B37F647E0012725B
:104019004AE4FFFE1271C212722B900366EEF0A3FE
:10402900EFF0E4FFFE1271C27F017E001271997FE9
:104039000A7E001272B07F071271BA7F121271BA2A
:104049007FA47E001271C27F017E001271C27F0AB5
:104059007E001272B07F707E001271C27F007E9B5B
:104069001271997F077E001271C27F317E00127131
:10407900997F187E001271C27F017E001271997FAB
:10408900107E001271C27FB07E111271997F117E6C
:10409900001271C27F077E001271997F127E001291
:1040A90071C27F177E101271997F137E001271C23F
:1040B9007F0D7E851271997F147E001271C27F0077
:1040C9007E801271997F127E001271C27F3C7E1030
:1040D9001271997F967E0012720C7F011271C27F54
:1040E900007E051271997F027E001271C27F007EE7
:1040F900071271997F037E001271C27F307E101200
:1041090071997F087E001271C27408FFFE127199BD
:104119007F0B7E001271C27F007E111271997F0C94
:104129007E001271C2E4FFFE1271997F0F7E0012A8
:1041390071C27F017E141271997F157E001271C2BE
:10414900E4FFFE1271997F207E001271C2E4FFFE26
:104159001271997F217E001271C2E4FFFE127199DA
:104169007F507E001271C2E4FFFE1271997F517E69
:10417900001271C27FAF7E001271997F527E0012C8
:1041890071C2E4FFFE1271997F537E001271C27FE2
:10419900DB7E001271997F707E001271C27F007EF2
:1041A9001B1271997F717E001271C2E4FFFE1271B8
:1041B900997F907E001271C2E4FFFE1271997F917E
:1041C9007E001271C27F007E011271997F927E007A
:1041D9001271C27F017E001271997F597E0012719E
:1041E900C27F0C7E051271997F907E001271C27F89
:1041F900107E001271997F927E001271C27F007E3B
:10420900061271997F077E001271C27F337E0212F6
:1042190071997F327E0012720C7F221271C2E4FF03
:0E422900126FB490036BE0FEA3E0FF026C6323
:056ABC00E0FEA3E0FF75
:106AC1009000F4EEF0A3EFF0A3ECF0A3EDF090034F
:106AD10068E070357F50FE12718E7F517E00127119
:106AE100C2AF03AE021271997F527E001271C2A32E
:106AF1001271947F537E001271C29000FA12719448
:106B01007F2012718C7F2180327F5212718C7F53D2
:106B11007E001271C2AE02AF031271997F507E00E6
:106B21001271C2A31271947F517E001271C2900042
:106B3100FA1271947F2112718C7F207E001271C232
:0C6B4100A31271947F227E001271C22208
:0E64450090038AEEF0A3EFF0A3ECF0A3EDF0CD
:10645300E4A3F0A304F0A3E4F0A304F0900362E048
:10646300FEA3E0FFC390038BE09F90038AE09E505E
:1064730015900364E0FEA3E0FFC390038DE09F90BB
:10648300038CE09E4004E4FEFF2290038CE0FCA317
:10649300E0FD90038AE0FAA3E0FBA3E0FFA3E09012
:1064A30000FACFF0A3EFF090038A126ABC12722BAA
:1064B300AB07AA0612722BAA06AB07EA13131354EF
:1064C3001FFF900390E4F0A3EFF0EB7805CEC31326
:1064D300CE13D8F9543FFF90038EE4F0A3EFF07C82
:1064E30000EB541FFD90038EE0FEA3E07805C33359
:1064F300CE33CED8F9FBAA06ED33333354F84AFE34
:10650300EBFF900390E04EFAA3E04FAC02AE04FF22
:016513002265
:086C63009000D5EEF0A3EFF064
:106C6B00E4A3F0A3F0900363E024FFFB900362E046
:106C7B0034FFFA900365E024FFFE900364E034FFD9
:106C8B009000FAF0A3CEF0E4FDFCFFFE126AC1E423
:106C9B00FAFBD3900363E09B900362E09A4039E4E4
:106CAB009000D7F0A3F0900364E0FEA3E0FFC39045
:106CBB0000D8E09F9000D7E09E50169000D512713F
:106CCB00E69000D8E004F070DD9000D7E004F0808F
:086CDB00D50BBB00010A80BAD1
:016CE300228E
:106514009000E7ECF0A3EDF09000E5EEF0A3EFF0CF
:086524009000E9EAF0A3EBF09E
:10652C00E49000EFF0A3F0D3EF9BEE9A40030265EA
:10653C00DC9000EBE0FEA3E0FF9000E7E0FCA3E0C2
:10654C00FD9FEC9E40030265DCA3E0FAA3E0FB9008
:10655C0000FAEEF0A3EFF09000E5126ABC9000E5B3
:10656C00E0FEA3E0FFC39000EAE09FFF9000E9E0AB
:10657C009ECF2401CF34009000E5F0A3EFF0A3E010
:10658C00FEA3E0FFC39000ECE09FFF9000EBE09EC9
:10659C00CF2401CF34009000E7F0A3EFF09000E59A
:1065AC0074FFF5F0122F0245F060259000E7E0FF34
:1065BC00A3E09000EFCFF0A3EFF09000EF74FFF5A5
:1065CC00F0122F0245F060D59000ED1271E680EAD2
:0165DC00229C
:0E5CF200900282EEF0A3EFF0A3ECF0A3EDF031
:105D0000900282E0FEA3E0FFC3EB9FFFEA9ECF2458
:105D100001CF340090028FF0A3EFF0900284E0FEF8
:105D2000A3E0FFC3900289E09FFF900288E09ECF2E
:105D30002401CF340090028DF0A3EFF0900284E0B4
:105D4000FCA3E0FD900288E0FFA3E09000FACFF012
:105D5000A3EFF0900282126ABCE4900291F0A3F0EB
:105D600090028DE0FEA3E0FFC3900292E09F9002BC
:105D700091E09E5074E4900293F0A3F090028FE0C3
:105D8000FEA3E0FF900293E0FAA3E0FBC39FEA9E2C
:105D9000504690028FE0FCA3E0FDA3E0FEA3E0FFED
:105DA000122E85EB2FFFEA3EFEEF25E0FFEE33FEDD
:105DB00090028AE0FBA3E0FAA3E0F98F828E8312BF
:105DC0002F18FFAEF01271EB900294E004F070AC6B
:105DD000900293E004F080A4900292E004F07080BE
:095DE000900291E004F0025D6004
:015DE9002297
:1070D400900373FEE0FCA3E0FDC3900370E09DFD0C
:0670E40090036FE09CFC2C
:1070EA00AB07AA068D828C83C006C007AE83AF8227
:1070FA009000FAEEF0A3EFF0D007D006126AC19022
:0A710A000369E0FEA3E0FF0271EB51
:06704800FDE0FAA3E0FBED
:10704E009000EEEEF0A3EFF09000F2EAF0A3EBF07A
:10705E009000F0ECF0A3EDF09000EEE0FAA3E0FB70
:10706E00FFAE02C007A3E0FFA3E09000FACFF0A3AB
:10707E00EFF0D007126AC19000F2E0FEA3E0FF022B
:02708E0071EBA4
:106DDF009003AAEEF0A3EFF0A3ECF0A3EDF0A3EA7B
:106DEF00F0A3EBF012704E9003ABE02401FF900381
:106DFF00AAE03400FE9003ACE0FCA3E0A3127048BD
:106E0F009003AAE0FEA3E0FF9003ADE02401FD9004
:106E1F0003ACE03400FC9003AE1270499003ABE07A
:106E2F002401FF9003AAE03400FE9003ADE024019B
:106E3F00FD9003ACE03400FC9003AEE0FAA3E0FB5E
:036E4F0002704E80
:0E4661009001DAEEF0A3EFF0A3ECF0A3EDF081
:10466F00E49001E2F0A3F0A3F0A3F0A3F0A3F09085
:10467F0001DAE0FEA3E0FFC3EB9FFFEA9E9001E8A3
:10468F00F0A3EFF09001DCE0FAA3E0FBC39001E1AF
:10469F00E09BFE9001E0E09A9001EAF0A3CEF0904B
:1046AF0001DAE0FFA3E09001F2CFF0A3EFF0A3EA6D
:1046BF00F0A3EBF09001E8E0FEA3E0FFD39400EE4F
:1046CF0064809480400A9001EEE4F0A304F080210E
:1046DF00EF4E70089001EEF0A3F0801574FF90017B
:1046EF00EEF0A3F0C3E49FFFE49E9001E8F0A3EF88
:1046FF00F09001EAE0FEA3E0FFD39400EE64809413
:10470F0080400A9001F0E4F0A304F08021EF4E7096
:10471F00089001F0F0A3F0801574FF9001F0F0A362
:10472F00F0C3E49FFFE49E9001EAF0A3EFF0900145
:10473F00EAE0FEA3E0FF9001E8E0FCA3E0FDD39FD9
:10474F00EE6480F8EC6480989001EC4007ECF0A3E5
:10475F00EDF08005EEF0A3EFF0E49001E2F0A3F0AE
:10476F009001EDE02401FF9001ECE03400FED390C6
:10477F0001E3E09F9001E2E09E400302484F900169
:10478F00F2E0FEA3E0FFA3E0FCA3E0FD1270EA90CD
:10479F0001E8E0FEA3E0FF9001E5E02FF09001E4D7
:1047AF00E03EF09001EAE0FEA3E0FF9001E7E02F8A
:1047BF00F09001E6E03EF09001ECE0FEA3E0FF9008
:1047CF0001E4E0FCA3E0FDD39FEE6480F8EC64808D
:1047DF00984020ED9FFFEC9E9001E4F0A3EFF09046
:1047EF0001EEE0FEA3E0FF9001F3E02FF09001F265
:1047FF00E03EF09001ECE0FEA3E0FF9001E6E0FC6C
:10480F00A3E0FDD39FEE6480F8EC6480984020ED28
:10481F009FFFEC9E9001E6F0A3EFF09001F0E0FE19
:10482F00A3E0FF9001F5E02FF09001F4E03EF0904F
:10483F0001E3E004F070069001E2E004F002476F3C
:01484F002246
:0E485000900180EEF0A3EFF0A3ECF0A3EDF0EA
:10485E00E490018CF0A3F0A3F0A3F0900180E0FEB1
:10486E00A3E0FFC3EB9FFFEA9E900190F0A3EFF051
:10487E00900182E0FAA3E0FBC3900187E09BFE90DB
:10488E000186E09A900192F0A3CEF0900180E0FFB5
:10489E00A3E090019ACFF0A3EFF0A3EAF0A3EBF020
:1048AE00900190E0FEA3E0FFD39400EE648094802C
:1048BE00400A900196E4F0A304F08021EF4E7008B8
:1048CE00900196F0A3F0801574FF900196F0A3F07E
:1048DE00C3E49FFFE49E900190F0A3EFF09001924D
:1048EE00E0FEA3E0FFD39400EE64809480400A9033
:1048FE000198E4F0A304F08021EF4E700890019827
:10490E00F0A3F0801574FF900198F0A3F0C3E49F1C
:10491E00FFE49E900192F0A3EFF0900192E0FEA3CF
:10492E00E0FF900190E0FCA3E0FDD39FEE6480F8E1
:10493E00EC6480989001944007ECF0A3EDF08005B4
:10494E00EEF0A3EFF0E490018AF0A3F0900195E071
:10495E002401FF900194E03400FED390018BE09F80
:10496E0090018AE09E4003024A3C90019AE0FEA329
:10497E00E0FFA3E0FCA3E090018812704890019044
:10498E00E0FEA3E0FF90018DE02FF090018CE03E61
:10499E00F0900192E0FEA3E0FF90018FE02FF090E7
:1049AE00018EE03EF0900194E0FEA3E0FF90018CBA
:1049BE00E0FCA3E0FDD39FEE6480F8EC64809840A9
:1049CE0020ED9FFFEC9E90018CF0A3EFF0900196EE
:1049DE00E0FEA3E0FF90019BE02FF090019AE03EF5
:1049EE00F0900194E0FEA3E0FF90018EE0FCA3E0C6
:1049FE00FDD39FEE6480F8EC6480984020ED9FFF1D
:104A0E00EC9E90018EF0A3EFF0900198E0FEA3E0F3
:104A1E00FF90019DE02FF090019CE03EF090018B05
:0E4A2E00E004F0700690018AE004F002495A9C
:014A3C002257
:105FD5009003B0EEF0A3EFF09003B4EAF0A3EBF07A
:085FE5009003B2ECF0A3EDF013
:105FED009003B0E0FAA3E0FB24FFFFEA34FFFEC00C
:105FFD0006C007ED24FFFDEC34FFFCEB2401FBE4B0
:10600D003AFAA3E0FEA3E02401FFE43E9000FAF08B
:10601D00A3EFF0D007D006126AC1E4FBEBC39409DD
:10602D007480948050061271E30B80F09003B1E000
:10603D0024FCFF9003B0E034FFFEC0079003B2E0F4
:10604D00FCA3E0FD9003B1E02404FB9003B0E03429
:10605D0000FA9003B2E0FFA3E09000FACFF0A3EFB7
:10606D00F0D007126AC1E4FBEBC3940974809480ED
:10607D0050061271E30B80F09003B3E024FCFD9009
:10608D0003B2E034FFFC9003B0E0FAA3E0FBA3E021
:10609D00FEA3E02404FFE43E9000FAF0A3EFF0909D
:1060AD0003B0126ABCE4FBEBC39409748094805076
:0760BD00061271E30B80F0F5
:0160C40022B9
:10697E00900396EAF0A3EBF0900392EEF0A3EFF003
:10698E00A3ECF0A3EDF0C007A3E0FAA3E0FB9003A5
:10699E0094E0FFA3E09001E0CFF0A3EFF0D0071258
:1069AE004661900392E0FAA3E0FBFFAE02C007A39C
:1069BE00E0FCA3E0FD900398E0FFA3E09001E0CFA0
:1069CE00F0A3EFF0D007124661900398E0FCA3E02D
:1069DE00FD900396E0FAA3E0FBA3E0FFA3E0900195
:1069EE00E0CFF0A3EFF0900392E0FEA3E0FF12469B
:1069FE0061900396E0FAA3E0FBFFAE02C00790039E
:106A0E0094E0FCA3E0FD900398E0FFA3E09001E08A
:0A6A1E00CFF0A3EFF0D007024661AD
:0E4C260090036DEEF0A3EFF0A3ECF0A3EDF021
:104C3400E4A3F0A3F0EBFF7E00A3EEF0A3EFF025D6
:104C4400E0FFEE33FEC374039F900376F0E49E907E
:104C54000375F0900373E0FEA3E0FF900371E0FCA2
:104C6400A3E0FDD39FEE6480F8EC648098400302D7
:104C74004DFD90036EE02DFF90036DE03C1270D467
:104C8400900373E0FEA3E0FF90036EE02FFF900318
:104C94006DE03E9003711270D7900373E0FEA3E0C1
:104CA400FF90036EE02FFF90036DE03EFE900371D2
:104CB400E0FCA3E0FD900370E02DFD90036FE03C69
:104CC400FC1270EA900371E0FEA3E0FF90036EE033
:104CD4002FFF90036DE03EFE900373E0FCA3E0FD24
:104CE400900370E02DFD90036FE03CFC1270EA909D
:104CF4000371E0FEA3E0FFC390036EE09FFF900307
:104D04006DE09EFE900373E0FCA3E0FD900370E071
:104D14002DFD90036FE03CFC1270EA900373E0FEFB
:104D2400A3E0FFC390036EE09FFF90036DE09EFE3F
:104D3400900371E0FCA3E0FD900370E02DFD90036F
:104D44006FE03CFC1270EA900371E0FEA3E0FFC345
:104D540090036EE09FFF90036DE09E1270D4900369
:104D640073E0FEA3E0FFC390036EE09FFF90036D2A
:104D7400E09EFE9003711270D8900372E004F0700C
:104D840006900371E004F0C3900375E0648094809E
:104D94005025900371E0FEA3E07802C333CE33CEF6
:104DA400D8F92406FFE43EFE900376E02FF090034A
:104DB40075E03EF0024C57900373E0FEA3E0FFC39E
:104DC400900372E09FFF900371E09EFEEF7802C3B0
:104DD40033CE33CED8F9240AFFE43EFE900376E0C6
:104DE4002FF0900375E03EF0900374E024FFF09000
:094DF4000373E034FFF0024C5798
:014DFD002293
:105321009000E2EEF0A3EFF09000E6EBF09000E4E5
:05533100ECF0A3EDF01B
:105336009000EBECF0A3EDF09000E7E0FF13131301
:10534600541FFEEF540760047F0180027F00EE2F9A
:10535600FF9000E7E0C313FEEF8EF0A49000EDF09F
:105366009000E6E024E0F0E4F99000EDE0FFE9C308
:105376009F40030254A79000E7E0FF7E00640C7094
:10538600129000E6E075F00CA42426F582E5F034D0
:10539600008033EF64104E70129000E6E075F01056
:1053A600A4249AF582E5F03404801B9000E7E064BB
:1053B6001860030254A79000E6E075F024A4248A3E
:1053C600F582E5F0340AF583E58229F582E4358332
:1053D600F583E4939000E9F0E49000EAF09000EAA7
:1053E600E0C394087480948040030254A39000E9BB
:1053F600E030E7139000E2E0FEA3E0FFA3E0FCA3A9
:10540600E0FD90036980179000E8E070149000E2D8
:10541600E0FEA3E0FFA3E0FCA3E0FD90036B1270A7
:10542600499000E9E025E0F09000E5E004F0700620
:105436009000E4E004F0900364E0FEA3E0FF900037
:10544600E4E0FCA3E0FDC39FEC9E50559000EBE02A
:10545600FEA3E0FFC3ED9FFDEC9EFC9000E7E07A23
:1054660000B50530EAB5042C9000E4EEF0A3EFF0A9
:105476009000E3E004F070069000E2E004F0900390
:1054860062E0FEA3E0FFC39000E3E09F9000E2E04D
:105496009E400A229000EAE004F00253E309025318
:0154A6006F96
:0154A70022E2
:076F6400C3EF9E14FD7F0A3C
:086F6B009000E2EFF0A3EDF04D
:106F7300A31230E0000000019000E3E0FF14F0EF03
:106F83006020A3E0F8A3E0F9A3E0FAA3E0FB9000FC
:106F9300E2E0FFE4FCFDFE122F7D9000E41230D40A
:106FA30080D69000E4E0FCA3E0FDA3E0FEA3E0FFB5
:016FB30022BB
:0E6297009000D5EEF0A3EFF0A3ECF0A3EDF035
:1062A500E49000E1F09000DFF09000DDE0FF900069
:1062B500DFE0FEC39F4003026372126F64A804A966
:1062C50005AA06AB079000D9E0FCA3E0FDA3E0FE1C
:1062D500A3E0FF123008E47B0AFAF9F812300890BF
:1062E50000E0EBF0A3E070459000DDE014FF9000C6
:1062F500DFE0FEC39F5036A3E0702C9000DEE0FB8C
:10630500C3138EF0A4FF9000D6E02FFF9000D5E0D8
:1063150035F0FE9000D7E0FCA3E0FD9000E7EBF040
:10632500E4A3F07B20803A9000E17401F09000DE58
:10633500E0FAC313FFA3E0FEEF8EF0A4FF9000D6B2
:10634500E02FFF9000D5E035F0FE9000D7E0FCA3EC
:10635500E0FD9000E0E02430FB9000E7EAF0E4A3E4
:0D636500F01253219000DFE004F00262AE60
:016372002208
:0E59A40090031FEEF0A3EFF0A3ECF0A3EDF0E4
:1059B200E490032CF090032AF0900327E0FF900379
:1059C2002AE0FEC39F4003025ACC126F64A804A9C6
:1059D20005AA06AB07900323E0FCA3E0FDA3E0FECB
:1059E200A3E0FF123008E47B0AFAF9F812300890BB
:1059F200032BEBF0A3E06003025A83900327E01429
:105A0200FF90032AE0FEC39F5077A3E0706D9003DE
:105A120029E0F990032830E72BE0FBC3138EF0A4B2
:105A2200FF900320E02FFF90031FE035F0FE90036C
:105A320021E0FCA3E0FD9000E7EBF0E95401A3F0C4
:105A42007B30807AE0FBC313FF90032AE0FEEF8EE7
:105A5200F0A4FF900320E02FFF90031FE035F0FE3B
:105A6200900321E0FCA3E0FD9000E7EBF090032916
:105A7200E054019000E8F07B20804390032C7401F5
:105A8200F0900328E0FAC313FF90032AE0FEEF8EA2
:105A9200F0A4FF900320E02FFF90031FE035F0FEFB
:105AA200900321E0FCA3E0FD90032BE02430FB9067
:105AB20000E7EAF0900329E054019000E8F0125365
:0A5AC2002190032AE004F00259BB12
:015ACC0022B7
:1061B2009000D5EEF0A3EFF0A3ECF0A3EDF0A3EA8C
:0461C200F0A3EBF06B
:1061C6009000D5E0FEA3E0FF9000E1F09000DAE059
:1061D6002FF09000D9E03EF09000D7E0FEA3E0FF5C
:1061E6009000DCE02FF09000DBE03EF09000DEE077
:1061F600FBA3E0FAA3E0F9122E2DFFD3947E400311
:10620600026296EFC3942050030262969000D9E092
:10621600FEA3E0FF9000D6E09F9000D5E09E401FD1
:106226009000E1E0FF9000D5E4F0A3EFF09000DDF0
:10623600E0FF9000D8E02FF09000D7E03400F09017
:1062460000DBE0FEA3E0FF9000D7E0FCA3E0FDC387
:106256009FEC9E503B9000D5E0FEA3E0FF122E2D52
:10626600FB9000DDE09000E7F0E4A3F012532190EC
:1062760000DDE0C313FF9000D6E02FF09000D5E0DC
:106286003400F09000DFE475F001122EEC0261F2AA
:0162960022E5
:10573500900377EEF0A3EFF0A3ECF0A3EDF0A3EB6D
:07574500F0A3EAF0A3E9F074
:10574C0090037BE0FBA3E0FAA3E0F9122E2D70038B
:10575C00025876900377E0FAA3E0FBFFAE02C00696
:10576C00C007A3E0FCA3E0FDEB241FFBE43AFA9096
:10577C000379E0FEA3E0241CFFE43E9000FAF0A3C2
:10578C00EFF0D007D006126AC1E490037EF09003CC
:10579C007EE0FFC3941474809480400302585B90A5
:1057AC00037BE0FBA3E0FAA3E0F9122E2DFE75F0CB
:1057BC0076EFA424E6F582E5F03417F583E4936ED6
:1057CC006003025852900001122E46FF90037EE0B7
:1057DC0075F076A424E7F582E5F03417F583E493AD
:1057EC006F7063FBEBC39474748094805058900377
:1057FC007EE075F076A424E8F582E5F03417F583A5
:10580C00E5822BF582E43583F583E493FF90037FE7
:10581C00E4F0A3EFF0E4FAEAC394087480948050A7
:10582C0022900380E030E705900369800390036BBE
:10583C001271E6900380E025E0F090037FE033F0F6
:10584C000A80D40B809E90037EE004F002579A905D
:10585C00037CE475F002122EEC900378E02420F027
:0A586C00900377E03400F002574C7F
:01587600220F
:1058770090026DEEF0A3EFF0A3ECF0A3EDF0A3EA36
:04588700F0A3EBF0AF
:10588B00E4900278F0A3F0A31230E0000000009047
:10589B00027E1230E00000000090026FE0FCA3E0FB
:1058AB00FDA3E0FEA3E0FF90026DE0FAA3E02FFF63
:1058BB00EA3ECF24FFFBEF34FFFA900273E0FEA326
:1058CB00E0FF90026FE0F8A3E02FFFE83ECF24FF4C
:1058DB00CF34FF9000FAF0A3EFF090026D126ABC88
:1058EB00900273E0FCA3E0FD900271E0FEA3E0FFE9
:1058FB00122E85EF25E0FFEE33FEE4FCFD90027ED9
:10590B001230D490027AA3A3E0FEA3E0FDAC0624F0
:10591B0001FFE43CFE900275E0FBA3E0FAA3E0F983
:10592B008F828E83122E46FF900278E4F0A3EFF065
:10593B00E0F8E4F0E8900278F08D828C83122E462A
:10594B00FF900278E0FEA3E04FFF900278EEF0FEAE
:10595B00A3EFF01271EBA3E0FCA3E0FDA3E0FEA329
:10596B00E02402FFE43EFEE43DFDE43CFC90027AC1
:10597B001230D490027EE0FCA3E0FDA3E0FEA3E096
:10598B00FF90027AE0F8A3E0F9A3E0FAA3E0FBC3EF
:08599B0012309A500302590E6C
:0159A30022E1
:066CE40090039A1230D467
:106CEA0090039AE0FCA3E0FDA3E0FEA3E0FF781383
:106CFA001230C1A3EEF0A3EFF090039AE0FCA3E0F8
:106D0A00FDA3E0FEA3E0FF780A1230C1EF543FFE74
:106D1A00E49003A0F0A3CEF090039AE0FCA3E0FD78
:106D2A00A3E0FEA3E0FF78031230C1EF541FFFE493
:106D3A00AD07FC9003A0E0FEA3E07805C333CE3391
:106D4A00CED8F9FBAA0690039FE033333354F84AAE
:096D5A00FEEBFFEE4CFEEF4DFFD5
:016D6300220D
:04711400AD07AC0611
:107118007BE77A187E00ED54037803C333CE33CE71
:10712800D8F9FFEA4EFAEB4FFB7E00ED541C7806C7
:10713800C333CE33CED8F9FFEA4EFAEB4FFBED540A
:07714800E04AFAEBAE02FF82
:01714F00221D
:086FFF009003B6EFF0A3EDF0E2
:10700700A31230E0000000019003B7E0FF14F0EF97
:107017006020A3E0F8A3E0F9A3E0FAA3E0FB900364
:10702700B6E0FFE4FCFDFE122F7D9003B81230D4CA
:1070370080D69003B8E0FCA3E0FDA3E0FEA3E0FF49
:017047002226
:106E52009003A21230D49003A6E0FCA3E0FDA3E0CD
:106E6200FEA3E0FF9003A2E0F8A3E0F9A3E0FAA3F7
:106E7200E0FBD31230B0401D9003A6E0F8A3E0F986
:106E8200A3E0FAA3E0FB9003A2E0FCA3E0FDA3E0F1
:106E9200FEA3E0801A9003A2E0F8A3E0F9A3E0FACF
:106EA200A3E0FBA3E0FCA3E0FDA3E0FEA3E0C39B01
:0B6EB200FFEE9AFEED99FDEC98FC222B
:087150009003BCEEF0A3EFF088
:10715800900369E0FFA3E09003BECFF0A3EFF0AF88
:1071680003900369EAF0A3EFF09003BCE0FEA3E00C
:10717800FF1270EA9003BEE0FFA3E0900369CFF02E
:03718800A3EFF082
:01718B0022E1
:105DEA009002DEEEF0A3EFF0A3ECF0A3EDF0A3EA4D
:045DFA00F0A3EBF037
:105DFE00E49002E9F0A3F09002E2E0FEA3E0FFC31C
:105E0E009002EAE09F9002E9E09E4003025EE0E429
:105E1E009002EBF0A3F09002E4E0FEA3E0FFC3904B
:105E2E0002ECE09F9002EBE09E4003025ECC9002FB
:105E3E00E9E0FEA3E0FF9002DFE02FFF9002DEE03C
:105E4E003EFE9002EBE0FCA3E0FD9002E1E02DFDB2
:105E5E009002E0E03CFC1264459002EDEEF0A3EF00
:105E6E00F09002E6E0FCA3E0FDA3E0FB1260C5901B
:105E7E0002EDEEF0A3EFF09002E9E0FEA3E0FF905A
:105E8E0002DFE02FFF9002DEE03EFE9002EBE0FC30
:105E9E00A3E0FD9002E1E02DFD9002E0E03CFC90DD
:105EAE0002EDE0FAA3E0FB12704E9002ECE004F07B
:105EBE006003025E249002EBE004F0025E24900286
:105ECE00EAE004F06003025E059002E9E004F002ED
:025EDE005E055F
:015EE000229F
:105EE10090032FECF0A3EDF0A3EAF0A3EBF0900305
:065EF1002DEEF0A3EFF01E
:105EF700C39401EE94004013E024FFFE90032DE0CD
:105F070034FF900337F0A3CEF0800F90032DE0FF0E
:105F1700A3E0900337CFF0A3EFF090032FE0FEA3A9
:105F2700E0FFC39401EE9400400CEF24FFFFEE3432
:105F3700FF900339800B90032FE0FFA3E090033914
:105F4700CFF0A3EFF0900339E0FFA3E0900333CF46
:105F5700F0A3EFF0900330E02402FF90032FE0342A
:105F670000FEC3900334E09F900333E09E505E90A1
:105F77000337E0FFA3E0900335CFF0A3EFF09003E2
:105F87002EE02402FD90032DE03400FC900335E061
:105F9700FEA3E0FFC39DEE9C5023900333E0FCA3D8
:105FA700E0FD900331E0FAA3E0FB12704E90033658
:105FB700E004F070C9900335E004F080C190033429
:0D5FC700E004F0708F900333E004F0808759
:015FD40022AA
:0E446E0090019EEEF0A3EFF0A3ECF0A3EDF0B2
:10447C00E49001AAF0A3F0A3F0A3F090019EE0FE5B
:10448C00A3E0FFC3EB9FFFEA9E9001AEF0A3EFF019
:10449C009001A0E0FAA3E0FBC39001A5E09BFE9085
:1044AC0001A4E09A9001B0F0A3CEF090019EE0FF41
:1044BC00A3E09001B8CFF0A3EFF0A3EAF0A3EBF0E8
:1044CC009001AEE0FEA3E0FFD39400EE64809480F4
:1044DC00400A9001B4E4F0A304F08021EF4E700880
:1044EC009001B4F0A3F0801574FF9001B4F0A3F028
:1044FC00C3E49FFFE49E9001AEF0A3EFF09001B0F7
:10450C00E0FEA3E0FFD39400EE64809480400A9018
:10451C0001B6E4F0A304F08021EF4E70089001B6D0
:10452C00F0A3F0801574FF9001B6F0A3F0C3E49FE4
:10453C00FFE49E9001B0F0A3EFF09001B0E0FEA379
:10454C00E0FF9001AEE0FCA3E0FDD39FEE6480F8A9
:10455C00EC6480989001B24007ECF0A3EDF080057C
:10456C00EEF0A3EFF0E49001A8F0A3F09001B3E01B
:10457C002401FF9001B2E03400FED39001A9E09F2A
:10458C009001A8E09E40030246609001B8E0FEA3B3
:10459C00E0FFA3E0FCA3E0FD9001A6E0FAA3E0FBA2
:1045AC0012704E9001AEE0FEA3E0FF9001ABE02F45
:1045BC00F09001AAE03EF09001B0E0FEA3E0FF9085
:1045CC0001ADE02FF09001ACE03EF09001B2E0FEC6
:1045DC00A3E0FF9001AAE0FCA3E0FDD39FEE648072
:1045EC00F8EC6480984020ED9FFFEC9E9001AAF0BF
:1045FC00A3EFF09001B4E0FEA3E0FF9001B9E02F2F
:10460C00F09001B8E03EF09001B2E0FEA3E0FF9024
:10461C0001ACE0FCA3E0FDD39FEE6480F8EC648079
:10462C00984020ED9FFFEC9E9001ACF0A3EFF09032
:10463C0001B6E0FEA3E0FF9001BBE02FF09001BAC1
:10464C00E03EF09001A9E004F070069001A8E004AF
:04465C00F0024578AB
:014660002237
:10368C00900142EEF0A3EFF0A3ECF0A3EDF0A3EA6F
:04369C00F0A3EBF0BC
:1036A000E490014FF0A3F0A3F0A3F090014AE0FFF3
:1036B0007E00C3900143E09F900142E09E500302D0
:1036C00038F7900147E09F900146E09E5003023892
:1036D000F7900144E0FCA3E0FD9FEC9E500302380C
:1036E000F7900149E09F900148E09E50030238F7AF
:1036F00090014AE07013900142E0FEA3E0FF9001C8
:103700004BE0FAA3E0FB02704E900142E0FAA3E026
:10371000FBC3900147E09BFE900146E09A90015365
:10372000F0A3CEF0900144E0FEA3E0FFC390014976
:10373000E09FFF900148E09E900155F0A3EFF090CC
:10374000015DEAF0A3EBF0900144A3E0FF90015F7C
:10375000EEF0A3EFF0900153E0FEA3E0FFD394005E
:10376000EE64809480400A900159E4F0A304F08054
:1037700021EF4E7008900159F0A3F0801574FF906E
:103780000159F0A3F0C3E49FFFE49E900153F0A31E
:10379000EFF0900155E0FEA3E0FFD39400EE6480CB
:1037A0009480400A90015BE4F0A304F08021EF4E86
:1037B000700890015BF0A3F0801574FF90015BF03E
:1037C000A3F0C3E49FFFE49E900155F0A3EFF090B7
:1037D0000155E0FEA3E0FF900153E0FCA3E0FDD320
:1037E0009FEE6480F8EC6480989001574007ECF0FD
:1037F000A3EDF08005EEF0A3EFF0E490014DF0A30F
:10380000F0900158E02401FF900157E03400FED30E
:1038100090014EE09F90014DE09E40030238F790EA
:10382000015FE0FCA3E0FD90014AE0FB7A00A3E029
:10383000FFA3E090022ECFF0A3EFF090015DE0FE39
:10384000A3E0FF122A8D900153E0FEA3E0FF900158
:1038500050E02FF090014FE03EF0900155E0FEA3C4
:10386000E0FF900152E02FF0900151E03EF0900116
:1038700057E0FEA3E0FF90014FE0FCA3E0FDD39FE3
:10388000EE6480F8EC6480984020ED9FFFEC9E9001
:10389000014FF0A3EFF0900159E0FEA3E0FF90018B
:1038A0005EE02FF090015DE03EF0900157E0FEA356
:1038B000E0FF900151E0FCA3E0FDD39FEE6480F8AF
:1038C000EC6480984020ED9FFFEC9E900151F0A3A6
:1038D000EFF090015BE0FEA3E0FF900160E02FF0CD
:1038E00090015FE03EF090014EE004F07006900120
:0738F0004DE004F002380175
:0138F70022AE
:0E26C300900161EEF0A3EFF0A3ECF0A3EDF0B8
:1026D100E490016EF0A3F0A3F0A3F0900161E0FE9D
:1026E100A3E0FFC3EB9FFFEA9E900172F0A3EFF01E
:1026F100900163E0FAA3E0FBC3900168E09BFE90C8
:102701000167E09A900174F0A3CEF0900161E0FFBF
:10271100A3E090017CCFF0A3EFF0A3EAF0A3EBF0EC
:10272100900172E0FEA3E0FFD39400EE64809480F8
:10273100400A900178E4F0A304F08021EF4E700884
:10274100900178F0A3F0801574FF900178F0A3F068
:10275100C3E49FFFE49E900172F0A3EFF090017437
:10276100E0FEA3E0FFD39400EE64809480400A90E1
:10277100017AE4F0A304F08021EF4E700890017A11
:10278100F0A3F0801574FF90017AF0A3F0C3E49FE9
:10279100FFE49E900174F0A3EFF0900174E0FEA3BA
:1027A100E0FF900172E0FCA3E0FDD39FEE6480F8AE
:1027B100EC6480989001764007ECF0A3EDF0800581
:1027C100EEF0A3EFF0E490016CF0A3F0900177E05C
:1027D1002401FF900176E03400FED390016DE09F6B
:1027E10090016CE09E4003022A8C900169E070190F
:1027F10090017CE0FEA3E0FFA3E0FCA3E0FD9001DB
:102801006AE0FAA3E0FB12704E900169E064016096
:102811000302289790017CE0FEA3E0FFA3E0FCA364
:10282100E0FD90016AE0FAA3E0FB12704E90017D99
:10283100E02401FF90017CE03400FE90017EE0FC89
:10284100A3E0FD90016AE0FAA3E0FB12704E900153
:102851007CE0FEA3E0FF90017FE02401FD90017E7A
:10286100E03400FC90016AE0FAA3E0FB12704E90A4
:10287100017DE02401FF90017CE03400FE90017FA6
:10288100E02401FD90017EE03400FC90016AE0FA51
:10289100A3E0FB12704E900169E06402600302291B
:1028A100DB90017CE0FEA3E0FFA3E0FCA3E0FD9050
:1028B100016AE0FAA3E0FB12704E90017DE0240171
:1028C100FF90017CE03400FE90017EE0FCA3E0FD7E
:1028D10090016AE0FAA3E0FB12704E90017CE0FEE9
:1028E100A3E0FF90017FE02401FD90017EE0340030
:1028F100FC90016AE0FAA3E0FB12704E90017DE0CA
:102901002401FF90017CE03400FE90017FE024016E
:10291100FD90017EE03400FC90016AE0FAA3E0FB47
:1029210012704E90017DE024FFFF90017CE034FFA6
:10293100FE90017FE02401FD90017EE03400FC90D7
:10294100016AE0FAA3E0FB12704E90017DE02401E0
:10295100FF90017CE03400FE90017FE024FFFD90B8
:10296100017EE034FFFC90016AE0FAA3E0FB127003
:102971004E90017DE024FFFF90017CE034FFFE904A
:10298100017FE024FFFD90017EE034FFFC90016AAD
:10299100E0FAA3E0FB12704E90017DE024FFFF906E
:1029A100017CE034FFFE90017EE0FCA3E0FD90019C
:1029B1006AE0FAA3E0FB12704E90017CE0FEA3E016
:1029C100FF90017FE024FFFD90017EE034FFFC9049
:1029D100016AE0FAA3E0FB12704E900172E0FEA3DF
:1029E100E0FF90016FE02FF090016EE03EF090016A
:1029F10074E0FEA3E0FF900171E02FF0900170E020
:102A01003EF0900176E0FEA3E0FF90016EE0FCA3B2
:102A1100E0FDD39FEE6480F8EC6480984020ED9F48
:102A2100FFEC9E90016EF0A3EFF0900178E0FEA321
:102A3100E0FF90017DE02FF090017CE03EF09001FD
:102A410076E0FEA3E0FF900170E0FCA3E0FDD39FE0
:102A5100EE6480F8EC6480984020ED9FFFEC9E903E
:102A61000170F0A3EFF090017AE0FEA3E0FF900186
:102A71007FE02FF090017EE03EF090016DE004F0E8
:0B2A8100700690016CE004F00227CD0D
:012A8C002227
:106A2800FAE0FFA3E09000E3CFF0A3EFF09002EFCD
:056A3800E0FEA3E0FFF9
:106A3D009000DDEEF0A3EFF0A3ECF0A3EDF0A3EAF0
:106A4D00F0A3EBF04A6067900362E0FCA3E0FD90D9
:106A5D0000DDE0FAA3E0FBD39DEA9C505190036466
:106A6D00E0FEA3E0FF9000DFE0FCA3E0FD9FEC9EC5
:106A7D00503CAF03AE02C006C007A3E0FEA3E0FF8B
:106A8D009000DFE0F8A3E02FFFE83ECF24FFCF34E6
:106A9D00FF9000EBF0A3EFF09000E3E0FFA3E09098
:0F6AAD0000EDCFF0A3EFF0D007D0061265142252
:106D64009000DDEEF0A3EFF0A3ECF0A3EDF0EB4A1E
:106D74006068900362E0FEA3E0FFD39000DEE09F32
:106D84009000DDE09E5053900364E0FEA3E0FF908A
:106D940000DFE0FCA3E0FD9FEC9E503EAE02AF039B
:106DA4009000DDE0FAA3E02FFFEA3ECF24FFFBEFE3
:106DB40034FFFAA3E0FFA3E09000EBCFF0A3EFF0E1
:106DC4009000E3E0FFA3E09000EDCFF0A3EFF0909C
:0B6DD40000DDE0FEA3E0FF12651422CA
:1054A80090033BEEF0A3EFF0A3ECF0A3EDF0A3EA3A
:0454B800F0A3EBF082
:1054BC00A3E07002A3E070030255EE90033FE0708E
:1054CC0002A3E070030255EE900346E020E00302D5
:1054DC00556BE4A3F0A3F090033FE0FEA3E0FF9034
:1054EC000347E0FCA3E0FDC39FEC9E40030255EE96
:1054FC0090033CE02DFF90033BE03CFEC006C00750
:10550C0090033DE0FCA3E0FD900342E024FFFB9000
:10551C000341E034FFFAC002C003900348E025E0E9
:10552C00FF900347E033FE900343E0FBA3E0FAA3B4
:10553C00E0F98F828E83122F18FF9000E3E5F0F0D4
:10554C00A3EFF0D003D002D007D006126A3D90032F
:10555C0048E004F07081900347E004F00254E3E467
:10556C00900347F0A3F0900341E0FEA3E0FF90030B
:10557C0047E0FCA3E0FDC39FEC9E506690033EE029
:10558C002DFD90033DE03CFC900340E024FFFB909C
:10559C00033FE034FFFAC002C003900348E025E06B
:1055AC00FF900347E033FE900343E0FBA3E0FAA334
:1055BC00E0F98F828E83122F18FF9000E3E5F0F054
:1055CC00A3EFF090033BE0FEA3E0FFD003D0021268
:1055DC006D64900348E004F0708C900347E004F095
:0255EC008084B9
:0155EE00229A
:064A3D009001BC1230D410
:104A4300E49001D8F0A3F09001BCE0FCA3E0FDA347
:104A5300E0FEA3E0FF78101230C19001C9EFF0FB34
:104A63009001BCE0FCA3E0FDA3E0FEA3E0FF780817
:104A73001230C19001CAEFF0FA9001BCA3A3A3E0E6
:104A8300FFA9079001CBE9F09001C0E0FCA3E0FD92
:104A9300A3E0FEA3E0FF78101230C1EBFDC3EF9D4E
:104AA300FFEE94009001CCF0A3EFF09001C0E0FC86
:104AB300A3E0FDA3E0FEA3E0FF78081230C1EAFD06
:104AC300C3EF9DFEE494009001CEF0A3CEF09001DD
:104AD300C0A3A3A3E0FFE9FDC3EF9DFEE494009010
:104AE30001D0F0A3CEF0E49001D8F0A3F09001C779
:104AF300E0FEA3E0FFC39001D9E09F9001D8E09EC0
:104B03004003024C25E0FAA3E0FB9001CCE0FEA3B6
:104B1300E0FFAD03AC02122E859001C7E0FCA3E0D9
:104B2300FD122E97A3E07C002FFFEC3E9001D2F004
:104B3300A3EFF09001CEE0FEA3E0FFAD03AC0212C1
:104B43002E859001C7E0FCA3E0FD122E979001CAC9
:104B5300E07C002FFFEC3E9001D4F0A3EFF0900136
:104B6300D0E0FEA3E0FFAD03AC02122E859001C797
:104B7300E0FCA3E0FD122E979001CBE07C002FFF19
:104B8300EC3E9001D6F0A3EFF09001D2E0FEA3E05B
:104B93007803CEC313CE13D8F9F0EE9001D2F09080
:104BA30001D4E0FEA3E07802CEC313CE13D8F9F00C
:104BB300EE9001D4F09001D6E0FEA3E07803CEC3DB
:104BC30013CE13D8F9F0EE9001D6F09001D4E0FEA5
:104BD300A3E07805C333CE33CED8F9FDAC069001FC
:104BE300D3E033333354F84CFEEDFF9001D6E04E5F
:104BF300FCA3E04FFDEB25E0FFEA33FE9001C4E0A8
:104C0300FBA3E0FAA3E0F98F828E83EC8DF0122FE1
:104C1300509001D9E004F070069001D8E004F0024E
:024C23004AF055
:014C2500226C
:105BE600900240EEF0A3EFF0A3ECF0A3EDF0A3EAF1
:045BF600F0A3EBF03D
:105BFA0090024CE0FCA3E0FDA3E0FEA3E0FF9001CD
:105C0A00C01230D4900254E0F9A3E0FAA3E0900164
:105C1A00C4C9F0A3EAF0A3E9F0900244E0FFA3E0CC
:105C2A009001C7CFF0A3EFF0900248E0FCA3E0FD9B
:105C3A00A3E0FEA3E0FF124A3DE4900250F0A3F075
:105C4A00900244E0FEA3E0FFC3900251E09F90025D
:105C5A0050E09E4003025CF1E4900252F0A3F090FF
:105C6A000246E0FEA3E0FFC3900253E09F90025277
:105C7A00E09E505F900250E0FAA3E0FB900241E000
:105C8A002BFF900240E03AFEC006C007900252E0A5
:105C9A00FEA3E0FF900243E02FFD900242E03EFCAB
:105CAA00EB25E0FFEA33FE900254E0FBA3E0FAA3FF
:105CBA00E0F98F828E83122F18FBAAF0D007D00644
:105CCA0012704E900253E004F07094900252E00475
:105CDA00F0808C900251E004F06003025C4A90026A
:075CEA0050E004F0025C4AE7
:015CF1002290
:1065DD009000D3EEF0A3EFF0A3ECF0A3EDF0A3EA5F
:1065ED00F0A3EBF0C0079000DBE0FFA3E09000E329
:1065FD00CFF0A3EFF0D007126D649000D9E0FEA3A9
:10660D00E0FF9000D6E02FFF9000D5E03ECF24FFB5
:10661D00FDEF34FFFC9000D7E0FAA3E0FB9000DB28
:10662D00E0FFA3E09000E3CFF0A3EFF09000D3E004
:10663D00FEA3E0FF126D649000D5E0FCA3E0FD9099
:10664D0000D9E0FAA3E0FBA3E0FFA3E09000E3CFC5
:10665D00F0A3EFF09000D3126A389000D7E0FEA3BC
:10666D00E0FF9000D4E02FFF9000D3E03ECF24FF59
:10667D00CF34FFFEC0079000D5E0FCA3E0FD9000F5
:10668D00D9E0FAA3E0FBA3E0FFA3E09000E3CFF095
:08669D00A3EFF0D007026A3DF3
:101C0C009002EFEEF0A3EFF0A3ECF0A3EDF0A3EA5B
:041C1C00F0A3EBF056
:101C2000E49002FDF0A3F09002F5E0FEA3E030E0C6
:101C30000A2401FFE43E9002FD800B9002F5E0FFD4
:101C4000A3E09002FDCFF0A3EFF09002F8E0900245
:101C5000F77003021E6BE0F975F002A4FFC3900257
:101C6000F4E09FFB9002F3E095F0FAE9FF9002F0B8
:101C7000E02FFF9002EFE03400FEC0079002F1E099
:101C8000FCA3E0FD9002FDE0C313FFA3E01390006E
:101C9000DBCFF0A3EFF09002F9E0FFA3E09000DDCE
:101CA000CFF0A3EFF0D007126BED9002F7E0F975DB
:101CB000F002A4FFC39002F4E09FFB9002F3E095D2
:101CC000F0FAE9FF9002F0E02FFF9002EFE034001D
:101CD000FEC006C0079002FDE0C313FEA3E013FFA1
:101CE0009002F2E02FFD9002F1E03EFC9002FDE058
:101CF000C313FFA3E0139000DBCFF0A3EFF090023B
:101D0000FBE0FFA3E09000DDCFF0A3EFF0D007D021
:101D100006126BED9002F7E0F9FB7A009002F2E018
:101D20002BFD9002F1E03AFC9002FDE0C313FEA30C
:101D3000E013FFE9F582C3EF9582FFEE9400900077
:101D4000DBF0A3EFF09002F9126BD99002FDE0C333
:101D500013FEA3E013FF9002F2E02FFD9002F1E0EA
:101D60003EFC9002F7E0F9FB7A009002FDE0C3131D
:101D7000FEA3E013FFE9F582C3EF9582FFEE940026
:101D80009000DBF0A3EFF09002FB126BD99002F30E
:101D9000E0FEA3E0FF9002F0E02FFF9002EFE03EB4
:101DA000FE9002F7E0F9FD7C00C3EF9DFFEE9CFE84
:101DB000C006C0079002F2E02DFD9002F1E03CFC6D
:101DC000E9FB7A009002FDE0C313FEA3E013FFE9F4
:101DD000F582C3EF9582FFEE94009000DBF0A3EF55
:101DE000F09002F9E0FFA3E09000DDCFF0A3EFF068
:101DF000D007D006126BED9002F3E0FEA3E0FF9057
:101E000002F0E02FFF9002EFE03EFE9002F7E0F9D3
:101E1000FB7A00C3EF9BFFEE9AFEC006C00790025C
:101E2000FDE0C313FEA3E013FF9002F2E02FFD904C
:101E300002F1E03EFC9002FDE0C313FEA3E013FFBD
:101E4000E9F582C3EF9582FFEE94009000DBF0A3EA
:101E5000EFF09002FBE0FFA3E09000DDCFF0A3EFF6
:101E6000F0D007D006126BED02201EE0F975F002EB
:101E7000A4FFC39002F4E09FFB9002F3E095F0FA18
:101E8000C003E9FF9002F0E02FFF9002EFE0340082
:101E9000FE9002F1E0FCA3E0FD9002F9E0FBA3E07C
:101EA0009000E3CBF0A3EBF0D003126D649002F747
:101EB000E0F975F002A4FFC39002F4E09FFB9002EA
:101EC000F3E095F0FAC002C003E9FF9002F0E02FC2
:101ED000FF9002EFE03400FE9002FDE0FCA3E0FD85
:101EE0009002F1E0FAA3E02DFDEA3CCD24FFCD34D1
:101EF000FFFC9002FBE0FBA3E09000E3CBF0A3EB40
:101F0000F0D003D002126D649002F7E0FB7A0090EB
:101F100002F2E02BFD9002F1E03AFC9002FDE0C3FA
:101F200013FEA3E013C39BFBEE9A9002F9126A28FA
:101F30009002FDE0FAA3E0FBEAC313FEEB13FF906F
:101F400002F2E02FFD9002F1E03EFCEAC313FEEB4B
:101F500013FF9002F7E0FBC3EF9BFBEE94009002AF
:101F6000FB126A289002F3E0FEA3E0FF9002F0E08B
:101F70002FFF9002EFE03ECF24FFCF34FFFEC006DC
:101F8000C0079002F7E0FB7A009002F2E02BFD9090
:101F900002F1E03AFC9002FDE0C313FEA3E013C39C
:101FA0009BFBEE9AFA9002F9E0FFA3E09000E3CFEA
:101FB000F0A3EFF0D007D006126A3D9002F3E0FEE6
:101FC000A3E0FF9002F0E02FFF9002EFE03ECF246D
:101FD000FFCF34FFFEC006C0079002FDE0FAA3E089
:101FE000FBEAC313FEEB13FF9002F2E02FFD900219
:101FF000F1E03EFCEAC313FEEB13FF9002F7E0FBB7
:10200000C3EF9BFBEE9400FA9002FBE0FFA3E0908D
:1020100000E3CFF0A3EFF0D007D006126A3D9002A4
:10202000F1E0FCA3E0FD9002F7E0F9FF7E009002F2
:10203000EFE0FAA3E02FFBEE3AFAA3E0F8A3E02FDB
:10204000FFEE389001FCF0A3EFF0E9FF9002EFE023
:10205000F8A3E02FFFEE389001FEF0A3EFF0E9FFC8
:102060009002F1E0F8A3E02FFFEE38900200F0A319
:10207000EFF0E9FFA3EEF0A3EFF09002F9124DFEAE
:102080009002FDE0FEA3E0FF9002F2E02FFF90023D
:10209000F1E03EFE9002F7E0F9FB7A00C3EF9BFD12
:1020A000EE9AFC9002EFE0FEA3E02BFBEA3EFA90F2
:1020B00002FDE0FEA3E0FF9002F1E0F8A3E02FFFB5
:1020C000E83ECF24FFCF34FF9001FCF0A3EFF0E90E
:1020D000FF7E009002EFE0F8A3E02FFFEE389001C2
:1020E000FEF0A3EFF09002FDE0FEA3E0FF9002F10E
:1020F000E0F8A3E02FFFE83EFEE9F582C3EF95820A
:10210000FFEE9400CF24FFCF34FF900200F0A3EF46
:10211000F0E9FFA3E4F0A3EFF09002FB124DFE9074
:1021200002F3E0FEA3E0FF9002F0E02FFB9002EF4D
:10213000E03EFA9002F7E0F9FFC3EB9FFFEA94005C
:10214000FEC006C0079002F1E0FCA3E0FDE9FF7EBF
:10215000009002F1E0F8A3E02FFFEE389001FCF0D0
:10216000A3EFF09002F3E0FEA3E0FF9002EFE0F8AF
:10217000A3E02FFFE83EFEE9F582C3EF9582FFEE74
:102180009400CF24FFCF34FF9001FEF0A3EFF0E9DD
:10219000FF7E009002F1E0F8A3E02FFFEE389002FE
:1021A00000F0A3EFF0E9FFA3EEF0A3EFF09002F947
:1021B000E0FFA3E0900204CFF0A3EFF09002F8E07C
:1021C000900206F0D007D006124E1A9002F3E0FEFD
:1021D000A3E0FF9002F0E02FFF9002EFE03EFE90C0
:1021E00002F7E0F9FDC3EF9DFFEE9400FEC006C0CC
:1021F000079002FDE0FEA3E0FF9002F2E02FFF90C7
:1022000002F1E03EFEC3EF9DFDEE9400FC9002F370
:10221000E0FEA3E0FF9002EFE0FAA3E02FFBEA3E2E
:10222000FA9002FDE0FEA3E0FF9002F1E0F8A3E0E7
:102230002FFFE83ECF24FFCF34FF9001FCF0A3EF47
:10224000F09002F3E0FEA3E0FF9002EFE0F8A3E0DD
:102250002FFFE83EFEE9F582C3EF9582FFEE940082
:10226000CF24FFCF34FF9001FEF0A3EFF09002FDEA
:10227000E0FEA3E0FF9002F1E0F8A3E02FFFE83ECC
:10228000FEE9F582C3EF9582FFEE9400CF24FFCFE5
:1022900034FF900200F0A3EFF0E9FFA3E4F0A3EF16
:1022A000F09002FBE0FFA3E0900204CFF0A3EFF078
:0F22B0009002F8E0900206F0D007D006024E1A16
:106BD900E0FFA3E09000DDCFF0A3EFF09002EFE03B
:046BE900FEA3E0FF28
:106BED009000D5EEF0A3EFF0A3ECF0A3EDF0EB4A9F
:106BFD0060639000DBE07002A3E060599000D7E085
:106C0D00FCA3E0FDAE02AF039000D5E0FAA3E02FA8
:106C1D00FFEA3ECF24FFFBEF34FFFA9000DBE0FEEE
:106C2D00A3E0FF9000D7E0F8A3E02FFFE83ECF24CC
:106C3D00FFCF34FF9000EBF0A3EFF09000DDE0FF0D
:106C4D00A3E09000EDCFF0A3EFF09000D5E0FEA310
:066C5D00E0FF12651422A5
:102A8D00900228EEF0A3EFF0A3ECF0A3EDF0A3EA93
:042A9D00F0A3EBF0C7
:102AA10090022CE0FEA3E0FF7C027DC3123111E411
:102AB1007BE87A03F9F8123008EF2401FFE43EFEC7
:102AC100E43DFDE43CFC9002341230D490022CE051
:102AD100FEA3E0FF90022CE0FCA3E0FD123111C047
:102AE10004C005C006C00790022CE0FEA3E0FFE48D
:102AF100FCFD7B02FAF9F8123008D003D002D001B4
:102B0100D000EB2FFFEA3EFEE93DFDE83CFC9002E0
:102B1100381230D490022CE0FAA3E0FBFFAE02E4BD
:102B2100FCFD90023C1230D4C3900229E09BFF903F
:102B31000228E09AFEC00790022AE0FCA3E0FD9083
:102B4100022DE025E0FB90022CE033FA90022EE00A
:102B5100FFA3E09000E3CFF0A3EFF0D007126D6484
:102B61009002301230E000000001900234E0FCA33A
:102B7100E0FDA3E0FEA3E0FF900230E0F8A3E0F95E
:102B8100A3E0FAA3E0FBD31230B04003022E2C9055
:102B9100023CE0FCA3E0FDA3E0FEA3E0FFA804A942
:102BA10005AA06FB122F7DC004C005C006C0079010
:102BB1000230E0FCA3E0FDA3E0FEA3E0FFA804A92E
:102BC10005AA06FB122F7DD003D002D001D000EF61
:102BD1002BFFEE3AFEED39FDEC38FC900238E0F8BF
:102BE100A3E0F9A3E0FAA3E0FBC31230B040030273
:102BF1002D35900234E0FCA3E0FDA3E0FEA3E0FF4D
:102C010090023CE0F8A3E0F9A3E0FAA3E0FB123064
:102C1100B05003022D13900230A3A3E0FEA3E0FF06
:102C2100900229E09FFF900228E09ECF2401CF343B
:102C310000FEC006C00790023CA3A3E0FEA3E0FF94
:102C410090022BE02FFD90022AE03EFCC004C0055B
:102C5100900230E0FCA3E0FDA3E0FEA3E024FFFF2F
:102C6100EE34FFFEED34FFFDEC34FFFCE47B02FAB1
:102C7100F9F8122F7DAB07AA0690022EE0FFA3E020
:102C81009000E3CFF0A3EFF0D005D004D007D00639
:102C9100126D64900230A3A3E0FEA3E0FFC3900293
:102CA10029E09FFF900228E09ECF2401CF3400FE4F
:102CB100C006C00790023CA3A3E0FEA3E0FFC390BF
:102CC100022BE09FFD90022AE09EFCC004C005900B
:102CD1000230E0FCA3E0FDA3E0FEA3E024FFFFEE51
:102CE10034FFFEED34FFFDEC34FFFCE47B02FAF926
:102CF100F8122F7DAB07AA0690022EE0FFA3E09009
:102D010000E3CFF0A3EFF0D005D004D007D0061236
:102D11006D6490023CE0FCA3E0FDA3E0FEA3E0248F
:102D2100FFFFEE34FFFEED34FFFDEC34FFFC9002BB
:102D31003C1230D490023CA3A3E0FEA3E0FFC39079
:102D41000229E09FFF900228E09EFEC006C0079086
:102D51000230A3A3E0FEA3E0FF90022BE02FFD9041
:102D6100022AE03EFCC004C005E47F02FEFDFC90A7
:102D7100023CE0F8A3E0F9A3E0FAA3E0FB122F7D07
:102D8100AB07AA0690022EE0FFA3E09000E3CFF08C
:102D9100A3EFF0D005D004D007D006126D649002E5
:102DA1003CA3A3E0FEA3E0FFC3900229E09FFF90B4
:102DB1000228E09EFEC006C007900230A3A3E0FEF9
:102DC100A3E0FFC390022BE09FFD90022AE09EFC4E
:102DD100C004C005E47F02FEFDFC90023CE0F8A3C4
:102DE100E0F9A3E0FAA3E0FB122F7DAB07AA06905E
:102DF100022EE0FFA3E09000E3CFF0A3EFF0D005B7
:102E0100D004D007D006126D64900230E0FCA3E03C
:102E1100FDA3E0FEA3E02401FFE43EFEE43DFDE46A
:0B2E21003CFC9002301230D4022B6BFE
:012E2C002283
:1066A500900307F0A3EFF09002B4E0FEA3E0FF90A3
:1066B50002B2E0F8A3E02FFFE83E900309F0A3EF54
:1066C500F09002B8E0FFA3E090030BCFF0A3EFF04A
:0866D5009002A8E0FEA3E0FF23
:0E66DD009002FFEEF0A3EFF0A3ECF0A3EDF0BF
:1066EB00900307E0FCA3E0FDD39BEC9A506C900267
:1066FB00FFE0FEA3E0FFC3ED9FEC9E405D90030522
:10670B00E0FEA3E0FF900309E0FCA3E0FDD39FECC8
:10671B009E5047900301E0FEA3E0FFC3ED9FEC9E6C
:10672B004038900369E0FFA3E090030DCFF0A3EF97
:10673B00F090030BE0FFA3E0900369CFF0A3EFF021
:10674B00900307E0FEA3E0FF1270EA90030DE0FF59
:0A675B00A3E0900369CFF0A3EFF074
:016765002211
:10341B00E0FFA3E09002B6CFF0A3EFF0900204E040
:10342B00FFA3E09002B8CFF0A3EFF09001F6E0FE1F
:03343B00A3E0FF0C
:10343E009002A8EEF0A3EFF0A3ECF0A3EDF0A3EA58
:10344E00F0A3EBF0C006C007A3E0FFA3E0900305D6
:10345E00CFF0A3EFF09002B4E0FEA3E0FF9002B035
:10346E00E0F8A3E02FFFE83E900307F0A3EFF09003
:10347E0002B6E0FEA3E0FF9002B2E0F8A3E0C39F25
:10348E00FFE89E900309F0A3EFF09002B8E0FFA3CF
:10349E00E090030BCFF0A3EFF0D007D0061266DD5D
:1034AE009002AAE0FCA3E0FDA3E0FAA3E0FBA3E0F8
:1034BE00FFA3E0900305CFF0A3EFF09002B6E0FE7D
:1034CE00A3E0FF9002B0E0F8A3E02FFFE83E9003E8
:1034DE0007F0A3EFF09002B4E0FEA3E0FF9002B27B
:1034EE00E0F8A3E0C39FFFE89E1266BF9002AAE039
:1034FE00FCA3E0FDA3E0FAA3E0FBA3E0FFA3E090B2
:10350E000305CFF0A3EFF09002B6E0FEA3E0FF902C
:10351E0002B0E0F8A3E02FFFE83E1266A59002AAE3
:10352E00E0FCA3E0FDA3E0FAA3E0FBA3E0FFA3E031
:10353E00900305CFF0A3EFF09002B4E0FEA3E0FFFE
:10354E009002B0E0F8A3E02FFFE83E900307F0A34F
:10355E00EFF09002B61266AF9002AAE0FCA3E0FD77
:10356E00A3E0FAA3E0FBA3E0FFA3E0900305CFF0F6
:10357E00A3EFF09002B4E0FEA3E0FF9002B0E0F8FB
:10358E00A3E0C39FFFE89E900307F0A3EFF0900225
:10359E00B61266AF9002AAE0FCA3E0FDA3E0FAA388
:1035AE00E0FBA3E0FFA3E0900305CFF0A3EFF090C4
:1035BE0002B6E0FEA3E0FF9002B0E0F8A3E0C39FE6
:1035CE00FFE89E1266A59002AAE0FCA3E0FDA3E030
:1035DE00FAA3E0FBA3E0FFA3E0900305CFF0A3EF77
:1035EE00F09002B6E0FEA3E0FF9002B0E0F8A3E098
:1035FE00C39FFFE89E900307F0A3EFF09002B4E0A4
:10360E00FEA3E0FF9002B2E0F8A3E0C39FFFE89EA6
:10361E001266BF9002AAE0FCA3E0FDA3E0FAA3E0CD
:10362E00FBA3E0FFA3E0900305CFF0A3EFF0900221
:10363E00B4E0FEA3E0FF9002B0E0F8A3E0C39FFF6A
:10364E00E89E900307F0A3EFF09002B6E0FEA3E031
:10365E00FF9002B2E0F8A3E0C39FFFE89E9003093B
:10366E00F0A3EFF09002B8E0FFA3E090030BCFF0D1
:0E367E00A3EFF09002A8E0FEA3E0FF0266DDDD
:104DFE00E0FFA3E0900204CFF0A3EFF09002F8E002
:0C4E0E00900206F09002EFE0FEA3E0FF2F
:104E1A009001F6EEF0A3EFF0A3ECF0A3EDF0A3EA15
:044E2A00F0A3EBF016
:104E2E00E4900207F0A3F0900202E0FEA3E0FF90F0
:104E3E000209EEF0A3EFF025E0FFEE33FEC374039C
:104E4E009F90020EF0E49E90020DF0900209E0FE9B
:104E5E00A3E0FF900207E0FCA3E0FDD39FEE648089
:104E6E00F8EC6480984003024FD4900206E0700381
:104E7E00024F0690020BECF0A3EDF0900209E0FE5B
:104E8E00A3E0FFD390020CE09FEE6480F890020B3B
:104E9E00E06480984003024F549001F8E0FCA3E0D8
:104EAE00FDA3E0FAA3E0FBA3E0FFA3E09002AECFE8
